:020000040800F2
:10100000581F0020D510000841160008AB14000836
:1010100000000000000000000000000000000000D0
:10102000000000000000000000000000291F000870
:101030000000000000000000AD1600084521000877
:10104000E7100008E7100008811B0008E7100008FF
:10105000E7100008E7100008E7100008E710000894
:10106000E7100008E7100008E7100008E710000884
:10107000E7100008E7100008E7100008E710000874
:10108000E7100008E710000800000000E710000863
:10109000E7100008E7100008E7100008E710000854
:1010A000E7100008E7100008E7100008E710000844
:1010B000E710000800000000E71000080000000032
:1010C0000348854600F0CCF800480047F18F00083F
:1010D000581F00200448804704480047FEE7FEE709
:1010E000FEE7FEE7FEE7FEE74D210008C11000081D
:1010F00030B50B46014600202022012409E00D46B0
:10110000D5409D4205D31D469540491B2546954037
:1011100040191546521E002DF1DC30BD03460B432D
:101120009B0703D009E008C9121F08C0042AFAD29D
:1011300003E00B780370401C491C521EF9D2704723
:10114000D2B201E00270401C491EFBD2704700225F
:10115000F6E710B513460A4604461946FFF7F0FFB6
:10116000204610BD421E5378521C002BFBD10B7839
:101170001370491C521C002BF9D17047421C017896
:10118000401C0029FBD1801A704710B5002200E0F6
:10119000521C835C8C5CA34201D1002BF8D1D8B2E5
:1011A000E1B2401A10BD03460A780270401C491C87
:1011B000002AF9D11846704730B50546002003468D
:1011C00000E05B1C934205D2EC5CC85C201A01D1A4
:1011D000002CF6D130BD70B5064601F059F8046810
:1011E00005460A220021304600F002F82C6070BD4E
:1011F000F7B5009C0F4600262578641C002D05D00D
:1012000000F040F80068405DC007F5D12B2D02D0FA
:101210002D2D18D0641E39462046029A00F036F86B
:10122000002F04D03968A14201D1009939607105BD
:10123000022400290BDA4042002803DD01F028F8DF
:101240000460A007FEBD012080020643E3E70028FA
:10125000F8DA01F01DF804600048FEBDFFFFFF7FD3
:10126000064C0125064E05E0E36807CC2B430C3CF9
:1012700098471034B442F7D3FFF726FF00FF000869
:1012800020FF0008004870475CFE0008F7B582B0F8
:10129000029C00272078641C15460197302802D054
:1012A000002D15D015E020780127641C782804D083
:1012B000582802D0002D09D00BE0002D01D0102DB0
:1012C00007D1002710252078641C02E0082500E0E3
:1012D0000A250026009610E00099012769430818A6
:1012E000020C294680B2714300908E183804864261
:1012F00001D3012001902078641C294600F019F8E0
:101300000028E9DA0398002805D0002F01D0641ED8
:1013100000E0029C04600198002806D000F0B8FFAD
:1013200002210160C81E05B0F0BD009930040843D9
:10133000F9E73A2800D23038202302469A43412A5E
:1013400001D310463738884201D30020C04370478C
:1013500030B58C180278401C13071B0F01D103789D
:10136000401C120906D10278401C03E005780D707C
:10137000401C491C5B1EF9D101E00B70491C521E38
:10138000FBD1A142E6D3002030BD000001494861F5
:10139000704700000004014010B5837918490268C5
:1013A000002B26D00B6893430B604A6803689A436E
:1013B0004A600279521813680468234313608A68EC
:1013C00003689A438A60CA6803689A43CA6042798C
:1013D000102A05D051180A68006802430A6010BD3F
:1013E0008A6803681A438A60CA6800680243CA6050
:1013F00010BD0079401801689143016010BD0000E4
:1014000000040140F0B50022032501230C6893403D
:101410001C409C422AD10C79012C01D0022C12D103
:10142000876854002E46A640B74387604E79A64091
:1014300084682643866084889C43848084888B7972
:1014400093401C438480066853002C469C40A6436E
:1014500006600E7907689E403E430660C668A64354
:10146000C660CC799C40C3681C43C460521C102ADF
:10147000CBD3F0BD4B07DB0E9A40C90810B58900ED
:101480000818016A0F249C40A1430162016A1143BC
:10149000016210BD0246128A00200A4200D00120DB
:1014A000704701857047816170471FB50BF076F971
:1014B00007460BF0FCF806460BF0E4F905460BF086
:1014C0008CF904460BF0DEF8FE21039123466C46AE
:1014D000E0C40246FF21084606F0A8FEFEE7002908
:1014E000016802D00122114301E04908490001606E
:1014F0007047012292030029416801D0114300E0A6
:101500009143416070470246926900200A4200D030
:101510000120704710B5026852085200026002684C
:10152000134B8C681A4024024B6814432343036016
:101530000F230A681B069A430261026801231A43BB
:10154000026000228260C2600B698A691A4382606D
:1015500082680123DB031A438260CA68036813436D
:1015600003604268034B49691A401143416010BD52
:10157000FFE0CF00FF7FFF07406AC0B27047816283
:101580007047000070B5049D44688905890D1204F8
:10159000034E11431943344029432143416070BD38
:1015A000009800FC10B504460DF0D8FA0F200DF09D
:1015B00031FB2004000E0DF02DFBE0B20DF02AFBF4
:1015C0000DF0FCFA04460DF0E9FA204610BD70B5A6
:1015D0000D4604460DF0C2FAF0200DF01BFB20046E
:1015E000000E0DF017FBE0B20DF014FB28460DF0D5
:1015F00011FB0DF0D3FA012070BD00000249014833
:1016000008607047CCCC000000300040024901481F
:1016100008607047AAAA00000030004001494860F5
:1016200070470000003000400149886070470000AA
:101630000030004001490860704700000030004061
:101640007047000030B5827801240178002A15D057
:101650008B080E4A9B009A1813688907C90EFF254C
:101660008D40AB434578AD072D0E8D401D43156071
:101670000078C006C00E8440054804E0C806C00ECD
:10168000844003488030046030BD000000E400E086
:1016900000E100E004498A150028086801D01043E1
:1016A00000E0904308607047007000407047000001
:1016B00010B5084B5C78012C07D1102805D1012901
:1016C00004D0012098710220587010BD01481230DA
:1016D0004270F8E76B02002010B5084B9C78012C93
:1016E00007D1112805D1012904D0012098710220C9
:1016F000987010BD014812308270F8E76B0200202C
:1017000010B5094B1C78012C09D1022807D10129F9
:1017100006D0012019460A3988710220187010BDC0
:10172000014808300271F8E77502002010B5094B36
:101730005C78012C09D1032807D1012906D00120AA
:1017400019460A3988710220587010BD01480830C6
:101750004271F8E77502002010B5094B9C78012C06
:1017600009D1042807D1012906D0012019460A39D8
:1017700088710220987010BD014808308271F8E726
:101780007502002010B5094BDC78012C09D1052821
:1017900007D1012906D0012019460A398871022093
:1017A000D87010BD01480830C271F8E775020020FA
:1017B00010B5084B1C78012C07D1002805D1012950
:1017C00004D0012098710220187010BD0148123019
:1017D0000270F8E76B020020044A0029516901D029
:1017E000014300E081435161704700000010024056
:1017F000044A0029D16901D0014300E08143D1614D
:101800007047000000100240044A0029116901D00D
:10181000014300E081431161704700000010024065
:10182000044A0029916901D0014300E0814391619C
:101830007047000000100240044A0029D16801D01E
:10184000014300E08143D160704700000010024076
:10185000134801680122114301604168114A114097
:1018600041600168104A1140016001680122920440
:101870009143016041683F22120491434160C16A73
:1018800009090901C162016BFF22543291430163CE
:10189000416B4908490041630021816070470000A5
:1018A000001002400CB8FFF8FFFFF6FE03460020D0
:1018B0000A4A59090CD001290CD002290CD0516BCD
:1018C000DA06D20E012393400B4200D0012070476C
:1018D0001168F5E7116AF3E7516AF1E70010024079
:1018E00004490A6B10239A430A630A6B02430A6392
:1018F000704700000010024006490A6A5208520070
:101900000A620A6A04239A430A620A6A02430A6262
:10191000704700000010024001220549120600280D
:10192000086801D0104300E0904308607047000051
:101930000010024010B5054A53683D242404A34317
:101940005360536808430343536010BD00100240C6
:1019500001220549D2030028086A01D0104300E0A3
:1019600090430862704700000010024002490A6A72
:1019700002430A627047000000100240034A5168A7
:10198000890889000143516070470000001002403F
:1019900018B500220092114BCA225A6253225A6291
:1019A0000029996802D00143996012E0814399604F
:1019B000000A0124A403D968009A0140521C009235
:1019C000A24201D00029F6D0D968014201D10020FD
:1019D00000E00120FF21596218BD000000280040EE
:1019E0000021C17001704170817001228160027319
:1019F0004160704701090A2200075143000F401857
:101A0000C0B27047002103E0491C0A38C9B2C0B215
:101A10000A28F9D20907090E084370470849CA2263
:101A20004A6253224A620122D2050028886801D006
:101A3000104300E090438860FF2048627047000038
:101A40000028004000098021084380B2034AC343B4
:101A5000D06808400343D36070470000002800406E
:101A600018B500200C4B0090D868400612D4002016
:101A7000C043D86040210C02D868009A0840521C2C
:101A80000092A24201D00028F6D0D868400601D4C6
:101A9000002018BD012018BD002800400248C16880
:101AA00080229143C160704700280040024610B573
:101AB0000F480C464068C021C94301400002000E97
:101AC000CB04E070DB0E63708B069B0E0904490F9C
:101AD000A3702170002A0AD1FFF78CFFE0706078B4
:101AE000FFF788FF6070A078FFF784FFA07010BD3B
:101AF0000028004070B50D4A0021126804230B4CE9
:101B00001A40403CA368860C0546F540ED0B154095
:101B10000340E2682B4300090240002B03D010046D
:101B2000000C00D00121084670BD00004028004094
:101B300070B5034610480C46026810481146014033
:101B400088024D04800E20706D0E49066570490EA6
:101B5000A1705102490E40221140E170002B0AD1C0
:101B6000FFF748FF20706078FFF744FF6070A078AF
:101B7000FFF740FFA07070BD002800407F7F7F000E
:101B800010B5012424032046FFF7B4FF002804D039
:101B90000AF04DFE2046FFF755FF01204004FFF7F5
:101BA000F5FB10BD30B50D4BCA225A6253225A6262
:101BB00004250246094CAA4340342840002999686C
:101BC00004D0114399602168014303E09143996077
:101BD000216881432160FF20586230BD0028004009
:101BE00070B5054600260F4CCA2060625320606223
:101BF000FFF736FF002811D0A06840218843A0607D
:101C0000A06829680843A060A86820612069A988A5
:101C1000090408432061FFF741FF0126FF206062AD
:101C2000304670BD00280040034908B580004018C8
:101C30000090006808BD00005028004070B50021E9
:101C40001F4E0028B068144620D0400635D52078B5
:101C5000FFF7D0FE207BFFF7CDFE2078A5780004AB
:101C600005436078E1780002090408430543207BBE
:101C700000060543A068054360680543CA207062FA
:101C800053207062F561FF20706270BD400600D481
:101C9000E1702078FFF7B6FE05046078FFF7B2FE2A
:101CA00000020543A078FFF7ADFE0543E07800048D
:101CB0000543207BFFF7A6FEDAE7E170CAE70000E4
:101CC0000028004070B50C460026010060780ED058
:101CD000FFF790FEA078FFF78DFEE078A57800046E
:101CE00005436078217800024903084314E0C106E7
:101CF00003D5EF2108400A306070E078FFF782FEDC
:101D000005046078FFF77EFE00020543A078FFF728
:101D100079FE05432078400305430D4CCA206062DC
:101D200053206062FFF79CFE00280CD00948054054
:101D30006560FFF7B3FEA068800603D400F054F896
:101D4000002800D00126FF206062304670BD0000F0
:101D5000002800403FFFFF00F8B50C460026011E9A
:101D60001F4F2078B968324604D049062DD5FFF7B9
:101D700041FE2BE0490600D4E270FFF743FE050464
:101D80006078FFF73FFE00020543A078FFF73AFEB8
:101D90000543E07800040543CA2078625320786246
:101DA000FFF75EFE00280CD00E4805403D60FFF7AF
:101DB00075FEB868800603D400F016F8002800D03D
:101DC0000126FF2078623046F8BDE2702078A578C1
:101DD000000405436078E178000209040843DAE76B
:101DE000002800407F7F7F0018B50020114B009035
:101DF0009868800601D5012018BDCA20586253207A
:101E00005862D868A0218843D86020218C02D86805
:101E1000009A0840521C0092A24201D00028F6D03D
:101E2000D868800601D5012000E00020FF2159621A
:101E300018BD000000280040034A08B58000801843
:101E40000090016008BD0000502800404022002999
:101E5000018801D0114300E091430180704700895F
:101E600003214902084070470D4910B5884209D145
:101E7000841401212046FFF7DFFC00212046FFF7F4
:101E8000DBFC10BD07498842FBD104140121204628
:101E9000FFF7BAFC00212046FFF7B6FC10BD00009A
:101EA00000300140003800400246128900200A42FA
:101EB00000D001207047000030B50388C122920194
:101EC00013400A88CC890D892243CC882C432243B5
:101ED0004C8922438C8922431A4302808288094B11
:101EE0001A408B88134383800A8A02820288042363
:101EF00049889A4311430180818B034A11408183B1
:101F000030BD0000FFF00000FFF70000007B7047CD
:101F10008288034B1A40828082880A4382807047FD
:101F2000FFEF00000173704770470000034A11681B
:101F300089088900014311607047000000000140DA
:101F400030B50C4C0546607885B0002810D10A20C9
:101F50000CF062FF2B4610222E2103A86D4607C508
:101F600016220549002004F093F9012800D1607081
:101F700005B030BD6B020020FFFF000030B50C4CF7
:101F80000546A07885B0002810D10A200CF044FF47
:101F90002B4611222E2103A86D4607C5162205499E
:101FA000002004F075F9012800D1A07005B030BD03
:101FB0006B020020FFFF000030B50C4C0546207876
:101FC00085B0002810D10A200CF026FF2B460222F3
:101FD0002E2103A86D4607C516220549002004F0EE
:101FE00057F9012800D1207005B030BD75020020DE
:101FF000FFFF000030B50C4C0546607885B0002826
:1020000010D10A200CF008FF2B4603222E2103A832
:102010006D4607C516220549002004F039F901284C
:1020200000D1607005B030BD75020020FFFF0000D8
:1020300030B50C4C0546A07885B0002810D10A2098
:102040000CF0EAFE2B4604222E2103A86D4607C59C
:1020500016220549002004F01BF9012800D1A070C8
:1020600005B030BD75020020FFFF000030B50C4CFC
:102070000546E07885B0002810D10A200CF0CCFE8F
:102080002B4605222E2103A86D4607C516220549B9
:10209000002004F0FDF8012800D1E07005B030BD4B
:1020A00075020020FFFF000030B50C4C054620787B
:1020B00085B0002810D10A200CF0AEFE2B4600227D
:1020C0002E2103A86D4607C516220549002004F0FD
:1020D000DFF8012800D1207005B030BD6B02002070
:1020E000FFFF00000CB50020009001901349112063
:1020F00008601348416841604168416041683F227F
:1021000012049143416041680522D20411434160A9
:102110000168012212061143016001688901FCD5A2
:102120004168890889004160416802221143416089
:1021300041680907890F0229FAD10CBD002002402D
:102140000010024010B50CF075FE10BD10B514481B
:1021500001680122114301604168124A1140416047
:102160000168114A11400160016801229204914303
:10217000016041683F22120491434160C16A09092C
:102180000901C162016BFF22543291430163416B2B
:1021900049084900416300218160FFF7A3FF10BD9A
:1021A000001002400CB8FFF8FFFFF6FE30B5034602
:1021B0004A1E613B2D4C2E4D52100F2B27D86828FC
:1021C00012D8012361388340FF2904D07F290AD81F
:1021D000A05C18432AE00020215C19432154401CD4
:1021E000C0B24028F8D330BD012369388340FF29AD
:1021F00004D07F29F7D8A85C18432BE00020295C85
:1022000019432954401CC0B24028F8D330BD0346BE
:10221000713B0F2BFAD8782813D8012371388340EB
:10222000FF2905D07F29F1D8A05C9843A05430BD88
:102230000020215C99432154401CC0B24028F8D3AF
:1022400030BD012379388340FF2905D07F29F7D895
:10225000A85C9843A85430BD0020295C99432954B8
:10226000401CC0B24028F8D330BD00009E0B0020B7
:10227000DE0B002030B47446641E2578641CAB422B
:1022800000D21D46635D5B00E31830BC18470000B8
:10229000004870474003002002E008C8121F08C130
:1022A000002AFAD170477047002001E001C1121FD7
:1022B000002AFBD170470000F8B50646164C0820EE
:1022C00020700023154A637090880D46411C918050
:1022D00006F0DEFAA080D088411CD18006F0D8FA42
:1022E000E08000225007A118400F521C92B20872E1
:1022F000202AF7D363802821074800F0AAFF06F0C0
:10230000C7FA6080064800902B46282202493046D2
:102310000AF05AFC0020F8BDB00C00201402002086
:10232000B80B000010B503F0FDFF10BD10B504F0B0
:102330000DF910BD10B504F035F9C0B210BD10B5DF
:1023400004F076F910BD10B504F09EF9C0B210BDCE
:1023500010B504F02BFA10BD10B504F04DFA10BD05
:1023600010B504F09FFAC0B210BD10B504F0D0FA59
:10237000C0B210BD10B504F001FB10BDF0B5154F93
:1023800043003D4610352E465C19503E012A0CD0C4
:10239000002232543A54203E325410363254012036
:1023A000E85428462030C25411E0325C002A0FD194
:1023B0003A5C002A0CD1074A603A125C002A07D125
:1023C000044A503A105C002802D10120E8546170A0
:1023D000F0BD0000B80E0020034A00211154012175
:1023E0004032115470470000780E0020034A012348
:1023F000400013548018417070470000E80E002020
:10240000084A0021115440321154603A054B1154CE
:102410004200503399542033995401211A46803A8E
:1024200011547047780E0020014A01211154704761
:10243000A80E0020034A0123400013548018417065
:1024400070470000080F0020084A00211154403254
:102450001154503A054B11544200503399542033D3
:10246000995401211A46903A11547047780E002071
:10247000034A002111540121103211547047000009
:10248000880E0020034A002111540121103A1154F2
:1024900070470000980E0020034A002111540121CA
:1024A000403A115470470000B80E002038B500249F
:1024B000102807D2694600F0BCFB68464078002827
:1024C00000D00124204638BD0020044902464300C4
:1024D000401CC0B2CA521028F9D37047280F002000
:1024E000034A4000105AC840C00700D0012070477E
:1024F000280F002010B5044C4000225A01238B40C5
:102500001A43225210BD0000280F0020C840C00707
:1025100000D00120704710B588B0044601466846D7
:102520000AF0A8FE68460FC8079304AB07C36846C5
:10253000417FFF2917D0022915D0012917D0C91EC4
:102540000F290ED80021204600F008FF0121204667
:1025500000F004FF6846407FC01EC1B22046FFF76E
:1025600045FF08B010BD2046FFF74AFFF9E72046B7
:10257000FFF76AFFF5E710B588B0044601466846E4
:102580000AF078FE68460FC8079304AB07C3684695
:10259000017FFF2917D0012915D0022917D0C91EA4
:1025A0000F290ED80021204600F0D8FE0121204638
:1025B00000F0D4FE6846007FC01EC1B22046FFF77F
:1025C00015FF08B010BD2046FFF73EFFF9E7204693
:1025D000FFF716FFF5E70000F3B599B00178049115
:1025E000054664210498FEF783FD6A4610710E903B
:1025F0006A780446642110461892FEF779FD6A460F
:10260000507108900990AA78642110461692FEF73E
:102610006FFD6A46907105900690EA786421104635
:102620001492FEF765FD6A46D071029003900A216C
:102630000498FEF75DFD0A216143401AC7B208AA5B
:1026400017720A211898FEF753FD09990A2251437F
:10265000401AC0B208AA50720B900C900A2116982A
:10266000FEF746FD06990A225143401AC6B208AA4F
:1026700096720A211498FEF73BFD03990A225143F2
:10268000401AC5B208AAD572204664225043049964
:1026900008AA081A0A217943401AC1B21177099889
:1026A0006423189A5843121A0C980A235843101A94
:1026B000C0B208AA5077129006986423169A58431D
:1026C000101A0A227243801AC0B208AA907710909A
:1026D0000398149A5843101A0A226A43801AC0B207
:1026E00008AAD07714902046002400284AD00E9AD9
:1026F00068463032303702704770303181700146A1
:102700001A98FEF72FFD3EA11A98FEF72BFD68469A
:102710004079002843D008986946303008700B98FB
:10272000303048701298303088701A98FEF71AFDD1
:1027300033A11A98FEF716FD6846807900283FD02D
:10274000059869463030087030364E701098303039
:1027500088701A98FEF706FD29A11A98FEF702FD67
:102760006846C07900283BD002986946303008702E
:1027700030354D701498303088701A98FEF7F2FC9E
:102780001BB0F0BD002F684605D0303707703031E0
:1027900041708470B3E7303101704470F9E70B98F1
:1027A000002807D0694630300870129830304870E1
:1027B0008C70BAE712986946303008704C70F7E7B1
:1027C000002E07D0694630360E70109830304870B1
:1027D0008C70BEE710986946303008704C70F7E78F
:1027E000002D07D0694630350D7014983030487090
:1027F0008C70C2E714986946303008704C70F7E767
:102800002E000000F7B50020174604460646034692
:102810000246FA545B1CDBB2202BFAD301290AD002
:10282000022910D0032916D004291CD0052921D053
:10283000062926D02BE0082501262CA100980CF0B3
:10284000D1FA083023E00D2501262BA100980CF0C9
:10285000C9FA0D301BE0092501262BA100980CF0C8
:10286000C1FA093013E00F252AA100980CF0BAFA3A
:102870000F300CE00C252BA100980CF0B3FA0C30B3
:1028800005E00A252BA100980CF0ACFA0A300028CC
:1028900027D04119012292022031914221D20021F8
:1028A0001BE0002E0BD0009A4318D25C1346303B3D
:1028B000092B0BD92E2A09D0262A09D009E0009A23
:1028C0004318D25C262A03D0102901D27A5400E0A2
:1028D0000124491CC9B2202901D2002CE1D0012CCD
:1028E00001D00020FEBD0120FEBD000069705661D0
:1028F0006C75653D000000007375626D61736B5609
:10290000616C75653D00000067747756616C756594
:102910003D000000656469666963696F4E6F6D62B2
:1029200072653D006C696E65614E6F6D6272653DEA
:102930000000000061646D696E506173733D0000BA
:10294000F0B50446002085B0019002900390064641
:1029500004900D462046FEF711FCC1B200206A46E5
:1029600009E0235C2E2B04D19055032E01D2761C56
:10297000F6B2401CC0B28842F3D300226B46104628
:1029800001AE1B7805E0275CB754521C401CD2B244
:10299000C0B28342F7D800225B1CD8B26B465B788A
:1029A00007E001AEB618275C521C401C3771D2B24A
:1029B000C0B28342F5D800225B1CD8B26B469B782C
:1029C00007E001AEB618275C521C401C3772D2B229
:1029D000C0B28342F5D800225B1CD8B201AE06E03B
:1029E000B718235C521C401C3B73D2B2C0B2884261
:1029F000F6D33046FEF7EFFB2870301DFEF7EBFBF9
:102A0000687003A8FEF7E7FBA87004A8FEF7E3FBD5
:102A1000E870012005B0F0BD02460020082904D26C
:102A2000054B9A5C04E001207047044B08399A5C1E
:102A3000CA40D107F7D170479E0B0020DE0B002063
:102A4000F7B584B013460C46049800F045F80546E7
:102A50001946204600F0DCF80646012D02D0022D72
:102A600007D01CE0049831464006800E03F0B0F811
:102A700020E0049800F040F807460024394620463C
:102A8000FFF7CAFF012803D13146204603F0A0F822
:102A9000641CE4B2402CF1D3032003F069F8032D49
:102AA0000BD100243146204603F092F8641CE4B2B6
:102AB000402CF7D3032003F05BF86946049800F03C
:102AC0005CF868460AF04AFB02490120087007B02A
:102AD000F0BD0000780100200146812200200A405C
:102AE000012A00D10120E1220A40812A00D10220DE
:102AF000FF2900D103207047014681281FD0832978
:102B00001FD085291FD087291FD089291FD08B2945
:102B10001FD08D291FD08F291FD091291FD0932915
:102B20001FD095291FD097291FD099291FD09B29E5
:102B30001FD09D291FD09F2800D10F207047002053
:102B4000704701207047022070470320704704201F
:102B500070470520704706207047072070470820FF
:102B60007047092070470A2070470B2070470C20DF
:102B700070470D2070470E20704770B50B46064613
:102B8000FFF7AAFF01250446032805D100201D54A4
:102B9000401CC0B21028FAD3022C0DD13046FFF7EA
:102BA000ABFF00221146824201D19D5400E09954AE
:102BB000521CD2B2102AF6D3012C04D17006800E1A
:102BC000194600F001F870BDF0B500220E4E012349
:102BD0001446355CD540ED0701D08B5400E08C5491
:102BE000521CD2B2082AF4D3084D08222E5C174694
:102BF000083FFE40F60701D08B5400E08C54521C75
:102C0000D2B2102AF2D3F0BD9E0B0020DE0B0020C2
:102C10000246012807D0072A07D0062A07D0002835
:102C200000D1084670470020704701207047FE2001
:102C30007047F3B5002481B00E4627462546009420
:102C400028460199FFF7E8FE012811D1284602F035
:102C5000CFFF01280CD1641CE4B2284602F08EFF9D
:102C60000099091889B20091002801D17F1CFFB298
:102C70006D1CEDB2402DE3D3002C06D0347077707C
:102C800021460098FEF734FA02E0002030707070A0
:102C9000B070FEBD10B5094C05202178FEF797FCF9
:102CA00061780620FEF793FCA1780720FEF78FFCE1
:102CB000E1780820FEF78BFC10BD0000D800002052
:102CC00030B5002403E0055D0D55641CA4B29C42A0
:102CD000F9D31088C018108030BD30B5002403E04F
:102CE000055D0D55641CA4B29C42F9D31088C01830
:102CF000108030BDF0B500220127082803D20F4B09
:102D000004469D5C05E00D4B40339D5C0346083B4B
:102D1000DCB2D308DE00961BE540EC07CC5CF6B2D3
:102D20003D4602D0B5402C4301E0B540AC43521CB7
:102D3000D2B2CC54402AE0D3F0BD00009E0B00205C
:102D400030B50123082813D20022144D8340D00847
:102D5000C400085C141BE040C007A85C01D0184305
:102D600000E09843A854521CD2B2402AEFD330BDA1
:102D70000A4D0022403508388340D008C400085C62
:102D8000141BE040C007A85C01D0184300E0984342
:102D9000A854521CD2B2402AEFD330BD9E0B002063
:102DA000F0B5ADB0FEF754FD0721C9040020FEF7D1
:102DB000C1FD0120FEF7B0FD0220FEF7DFFD01217D
:102DC0008803FEF715FD01218804FEF705FD0226A4
:102DD00010A90E7403274F7400248C74CC74072040
:102DE0004003139013A99A48FEF70CFB012510A984
:102DF0000D764F768C76CC762803159015A99448DD
:102E0000FEF700FB29039248FEF74DFB18A90D7051
:102E10004F708C70CC70E802179017A98C48FEF7A1
:102E2000F1FAE9028A48FEF73EFB18A90C76CC7647
:102E300008201D9009201DA9C006FEF7E3FA854869
:102E4000FFF712F86946FF200C8005304880072004
:102E500000028880CC800C81680248818C81CC8102
:102E60000C827C48FFF728F829037A48FFF750F8CE
:102E700001217848FEF7EAFF01210803FEF7D0FCA4
:102E800001214804FEF7A8FC01218804FEF7A4FCF8
:102E90000121C804FEF7A0FC20A90C70CC70102002
:102EA0001F901FA96C48FEF7ADFA20A90C72CC72D6
:102EB0000820219021A96848FEF7A4FA20A90D74E2
:102EC0008C740420239023A96348FEF79BFA20A961
:102ED0000D768C7625A960482596FEF793FA18A9F9
:102EE0000E724F728C72CC72E0201990092019A9D1
:102EF000C006FEF787FA18A90D744F748C74CC7451
:102F000010201B9009201BA9C006FEF77BFA0920A0
:102F100000220721C006FEF7ADFA802728A92997CD
:102F20000D7229A94C48FEF76DFA80214A48FEF738
:102F3000B8FA4A48FEF798FF6946FF208C820530B0
:102F4000C8820720000208834C838C836802C883F0
:102F5000182008844C848C8405A94048FEF7ACFFF7
:102F600029033E48FEF7D4FF01213C48FEF76EFFDF
:102F700009201021C006FEF796FA01214805FEF748
:102F800037FC01218804FEF727FC1020FEF7A8FC7F
:102F9000012206212E48FEF76DFA012207212C4856
:102FA000FEF768FA28A9A8030C74CC7440002B9093
:102FB0000D70CD7004202790092027A9C006FEF7C8
:102FC00021FA00F060F840200A9008A90E738D7372
:102FD000CC730AA91E48FEF715FA08A90A970E73C2
:102FE0008D73CC730AA91A48FEF70CFA0D940E944F
:102FF00010940F9411941A481A4C0C900CA9204666
:10300000FEF788FA01212046FEF769FA16487D216D
:10301000C9000068FEF76CF81449884201D9012004
:1030200010E00102090A1248491E416111490722B4
:10303000CB691B021B0A44042343CB61002181613D
:1030400002610846002800D0FEE72DB0F0BD000068
:1030500000040048003800400008004800300140EB
:10306000270212A000540040C0000020FFFFFF0014
:1030700000E000E004ED00E010B509200421C006E6
:10308000FEF70FFA10BD10B509200421C006FEF7A7
:103090000AFA10BD10B502210148FEF702FA10BD70
:1030A0000008004810B502210148FEF7FCF910BDE8
:1030B0000008004810B504210148FEF7F2F910BDE0
:1030C0000008004810B504210148FEF7ECF910BDD6
:1030D0000008004870B52B4C2B4DA079002807D074
:1030E00060791E280AD902212846FEF7DCF909E09A
:1030F00020790128F7D0A0780128F4D002212846B1
:10310000FEF7CFF9A079002807D0607914280AD2F9
:1031100004212846FEF7C7F909E02078002802D1EB
:1031200020790028F4D004212846FEF7BAF91021AE
:103130002846FEF7AFF900280DD110212846FEF7EA
:10314000A9F90028F9D009F0FDFB03F031FE0028B1
:1031500012D003F07BFE08212846FEF79BF90028D9
:1031600009D108212846FEF795F90028F9D000F08A
:10317000B9FB0CF075F970BD0449FF2003F01EFE89
:10318000E9E70000F401002000080048B80B000047
:103190000149002008717047F40100200248012114
:1031A00081700021C1707047F401002001490120A5
:1031B00008717047F40100200248012101700021CC
:1031C00041707047F4010020014900208871704768
:1031D000F4010020024900224A7188717047000002
:1031E000F401002014490A780020012A03D14A780A
:1031F000002A04D008708A78012A04D00BE04A78AB
:10320000521C4A70F7E7CA78052A03D2C878401CD6
:10321000C87000E088704879002802D0401E4871CC
:1032200070473220487188790028F9D0FF28F7D0FC
:10323000401E887170470000F4010020007808707B
:103240001088401C1080704708701088401C108047
:10325000704770B54E0800231A4609E05400055D1A
:10326000241864782D026419A4B21B19521C92B25E
:10327000B242F3D3C90703D05100405C0002C31827
:10328000180CC018C04380B270BD000070B51E4D50
:103290001E4EAC78305D012802D0022812D02BE0FF
:1032A0002046FFF703F9012809D020460AF03AF931
:1032B000032804D020460AF0D9FE02281CD102209F
:1032C000305519E02046FFF7F1F8012814D02046C8
:1032D0000AF028F903280FD020460AF0C7FE02287A
:1032E0000AD0094901203055091D0A88A0408243AF
:1032F0000A804A8882434A80A8780F2801D2401C5D
:1033000000E00020A87070BD34030020B615002036
:1033100070B5FFF7BBFF084C00252078012803D1CA
:103320002570032003F0F4FA6078012803D165705A
:10333000042003F0B7FA70BD3403002010B5102844
:1033400008D2012906D8044C4900625A012383405F
:103350009A43625210BD00003803002010B51028B7
:1033600008D2012906D8044B49005A5A0124844046
:1033700022435A5210BD0000380300200020044AA6
:1033800001211154401CC0B21028FAD3704700002C
:10339000B615002010B5104804F0A6FE0E480178BE
:1033A000002917D14178002914D18178002911D141
:1033B000C07800280ED10520FEF709F9002106206B
:1033C000FEF705F900210720FEF701F9002108208A
:1033D000FEF7FDF810BD0000DC00002070B505020E
:1033E000084810212C182046FEF7F1F82046FEF779
:1033F000D9F80028FAD10348FF21401C2818FEF70D
:10340000E6F870BD0104000004498A7A012A03D15C
:10341000A32801D10220887270470000F202002028
:1034200005498A78012A05D1202801D0212801D117
:103430000220887070470000F202002004494A7898
:10344000012A03D1172801D10220487070470000DB
:10345000F202002010B5054BDC79012C05D11028B3
:1034600003D10220D87119725A7210BDF2020020E5
:1034700010B51B4B1C79012C1ED111281CD1022028
:1034800018715971FF219971082A16D0102A12D08B
:10349000182A14D0202A14D0282A14D0302A14D064
:1034A000382A14D0402A14D0482A14D0502A14D0D4
:1034B000582A01D10B20987110BD0120FBE7032091
:1034C000F9E70420F7E70520F5E70620F3E70720F2
:1034D000F1E70820EFE70920EDE70A20EBE700001D
:1034E000F202002010B5054B1C7B012C05D11228DF
:1034F00003D10220187359739A7310BDF202002091
:103500000549CA78012A05D1302803D33B2801D8C0
:103510000220C87070470000F20200200449CA7AF5
:10352000012A03D1222801D10220C872704700006D
:10353000F202002004490A78012A03D1162801D199
:103540000220087070470000F2020020044A0021A7
:10355000535C4354491CC9B21029F9D37047000089
:103560008E09002010B5064B0022845C9C54521C2E
:10357000D2B2102AF9D3012901D100F089FA10BD85
:103580008E09002030B5064B00221C4640349D5C5D
:103590008554A55C8D54521CD2B2402AF7D330BD5D
:1035A000EE09002070B5084C00232646403ECD5C55
:1035B000E554C55CF5545B1CDBB2402BF7D3012A04
:1035C00001D100F065FA70BD2E0A002010B5064B3F
:1035D00000200C5C1C54401CC0B24028F9D3012AC6
:1035E00001D100F055FA10BDDE0B002010B5064BDE
:1035F00000200C5C1C54401CC0B24028F9D3012AA6
:1036000001D100F045FA10BD9E0B0020044A0021B4
:10361000535C4354491CC9B24029F9D37047000098
:10362000AE09002010B5064B0022845C9C54521C4D
:10363000D2B2402AF9D3012901D100F029FA10BDF4
:10364000AE090020044A0021535C4354491CC9B20E
:103650000429F9D370470000D601002010B5064BAD
:103660000022845C9C54521CD2B2042AF9D3012952
:1036700001D100F00DFA10BDD601002038B50022AE
:103680000424314B11461046009405F0BDFB2E4B2F
:1036900000211B1D04220846009405F0B5FB2A4BAF
:1036A0000021083308220846009405F0ADFB1024E1
:1036B0000021264B0C220846009405F0A5FB234B65
:1036C000002110331C220846009405F09DFB1F4B7F
:1036D000002120332C220846009405F095FB1B4B5B
:1036E000002130333C220846009405F08DFB174B37
:1036F00040240022403301211046009405F084FB51
:10370000124B4022803301210020009405F07CFB05
:103710000E4B8022C03301210020009405F074FB81
:103720000B4B402204210020009405F06DFB084B58
:10373000C022403304210020009405F065FB00F016
:10374000F1FA00F053FB38BDCE0100206E090020D5
:103750009E0B002038B50C460949497800290CD148
:103760000E210091014623460022072005F04CFB64
:103770002078012801D8012038BD002038BD000084
:10378000CA01002038B50C460B4905464978012985
:1037900001D0002038BD05F099FB0D200090234694
:1037A00000222946072005F071FB05F062FBC007E7
:1037B000FBD1012038BD0000CA01002004490120CE
:1037C0004A78012A00D0002000224A707047000089
:1037D000CA01002070B50A4C0125607800280CD180
:1037E00005F074FB00221146072005F02DFB05F0C3
:1037F00040FBC007FBD101206070284670BD00006F
:10380000CA010020044A0021535C4354491CC9B238
:103810000429F9D370470000CE01002010B5064BF3
:103820000022845C9C54521CD2B2042AF9D3012990
:1038300001D100F02DF910BDCE010020044A002175
:10384000535C4354491CC9B21029F9D37047000096
:103850009E09002010B5064B0022845C9C54521C2B
:10386000D2B2102AF9D3012901D100F011F910BD0B
:103870009E090020044A0021535C4354491CC9B2EC
:103880001029F9D3704700006E09002010B5064BCF
:103890000022845C9C54521CD2B2102AF9D3012914
:1038A00001D100F0F5F810BD6E090020044A002196
:1038B000535C4354491CC9B21029F9D37047000026
:1038C0007E09002010B5064B0022845C9C54521CDB
:1038D000D2B2102AF9D3012901D100F0D9F810BDD4
:1038E0007E09002010B520A094B0006810901FA0A1
:1038F00000681190002012901D4801460C311EC92D
:10390000009101A91CC101461C311EC9049105A9E1
:103910001CC101462C311EC9089109A91CC13C30AB
:103920000FC80CAC0FC4002110A8FFF777FF0021CF
:1039300011A800F0B7F9002112A8FFF78FFE0021AF
:103940006846FFF7A3FF002104A8FFF7BBFF002193
:1039500008A8FFF707FE00210CA8FFF77BFF00F087
:1039600097F814B010BD0000C0A801FEFFFFFF00D3
:1039700038FC000838B50C460949097800290DD1F2
:103980000E2110300091C1B223460022062005F01E
:103990003BFA2078012801D8012038BD002038BD2D
:1039A000CA010020F8B5114D064628780C460128BA
:1039B00001D00020F8BD05F089FAE0790AF079FE1F
:1039C0006880217A6172010AE17120720E2010363E
:1039D0000090F1B223460022062005F057FA05F0C8
:1039E00048FAC007FBD10120F8BD0000CA01002041
:1039F000044901200A78012A00D0002000220A7020
:103A000070470000CA01002008B50B460749097835
:103A1000002901D0002008BD0A2150300091C1B218
:103A20000022062005F0F0F9012008BDCA0100209F
:103A300038B50D460B4904460978012901D000200C
:103A400038BD05F043FA0A2050340090E1B22B460D
:103A50000022062005F01AFA05F00BFAC007FBD188
:103A6000012038BDCA01002010B5012405F02EFA4E
:103A700000221146062005F0E7F905F0FAF9C00723
:103A8000FBD1024901200870204610BDCA01002068
:103A9000F0B5FFB0FFB08DB0FC2102A8FDF757FBD9
:103AA000754E81AF30680190FC21381DFDF74FFB4A
:103AB00070688190FC2141AC42A8FDF748FBB068DA
:103AC00041906EA00068F2AEC190042300226C49C0
:103AD000304604F0DBFA6A4904231A46091D3046D1
:103AE00004F0D4FA6649042308220831304604F071
:103AF000CDFA10230C226349304604F0C7FA61491D
:103B000010231C221031304604F0C0FA5D49102306
:103B10002C222031304604F0B9FA5A4910233C22B5
:103B20003031304604F0B2FA5649C2AE402300228A
:103B30004031304604F0AAFA524940231A468031F7
:103B4000304604F0A3FA4F4940238022C03130466A
:103B500004F09CFA40231A464B49204604F096FA9A
:103B600049494023C0224031204604F08FFA002406
:103B7000FFAD18352946204600F0A4F82201102395
:103B8000294601A804F082FA641CE4B2102CF1D397
:103B90000024FFAD24352946204600F005F9220116
:103BA00010232946384604F071FA641CE4B2102C44
:103BB000F1D305F08BF900221146104605F044F9C7
:103BC00005F057F9C007FBD105F080F94C20002221
:103BD0000090F2AB1146104605F058F905F049F98E
:103BE000C007FBD105F072F9C020002200903346D7
:103BF0000121104605F04AF905F03BF9C007FBD159
:103C000005F064F9FF240134002201AB02211046C3
:103C1000009405F03BF905F02CF9C007FBD105F045
:103C200055F900223B4603211046009405F02EF979
:103C300005F01FF9C007FBD105F048F9002241ABA0
:103C400004211046009405F021F905F012F9C0078F
:103C5000FBD105F03BF9022000220090C1AB052109
:103C6000104605F013F905F004F9C007FBD17FB049
:103C70007FB00DB0F0BD000038FC0008010100006D
:103C8000CE0100206E0900209E0B0020044A002176
:103C9000535C4354491CC9B20429F9D3704700004E
:103CA000D201002010B5064B0022845C9C54521CAB
:103CB000D2B2042AF9D3012901D1FFF7E9FE10BDE0
:103CC000D201002010282AD2154A125C0A70144A28
:103CD0001032125C4A70124A2032125C8A70104A0A
:103CE0003032125CCA700E4A4032125C0A710C4AC1
:103CF0005032125C4A710A4A6032125C8A71084A78
:103D00007032125CCA71064A8032125C0A72044A2E
:103D10009032125C4A72024AA032105C887270477C
:103D20006E0A00207FB500240B252007020E01AB90
:103D300002210020009505F067F8002201A9204625
:103D400000F006F8641CE4B2102CEED37FBD000036
:103D500010B5102821D2134C0B7823544B78103413
:103D600023548B7810342354CB78103423540B799C
:103D7000103423544B79103423548B79103423544A
:103D8000CB79103423540B7A103423544B7A1034EB
:103D900023542346897A10331954012A01D1FFF79D
:103DA00077FE10BD6E0A00200F4A125C0A700E4AA0
:103DB0001032125C4A700C4A2032125C8A700A4A35
:103DC0003032125CCA70084A4032125C0A71064AEC
:103DD0005032125C4A71044A6032125C8A71024AA3
:103DE0007032105CC87170471E0B00203EB5002475
:103DF00008252007020E01AB03210020009505F0E5
:103E000003F8002201A9204600F006F8641CE4B281
:103E1000102CEED33EBD000010B510281CD20F4C64
:103E20000B7823544B78103423548B78103423545C
:103E3000CB78103423540B79103423544B7910343D
:103E400023548B791034235423461033C9791954E1
:103E5000012A01D1FFF71CFE10BD00001E0B00203F
:103E600010B5094BDC78012C0BD1A92809D1012907
:103E700008D0002901D1022A04D0002018710220A4
:103E8000D87010BD0120F9E7E4000020F0B5124C15
:103E900085B0E078002813D1E07C0126002503AF2F
:103EA00001280FD02B20A923012200970295019011
:103EB0000A49052002F0ECF9012801D12571E670CC
:103EC00005B0F0BD0A200AF0A7FF2E20A923162274
:103ED000009702950190EBE7E4000020FFFF00004F
:103EE00070B50D4C2078012815D10C4D287800288C
:103EF00002D1FF2000F044F82878022802D1FF20E8
:103F000001F012FA06480078022804D1012001F0DD
:103F1000A9FA0220207070BD9C020020F40000204D
:103F2000F500002001490020087070479C02002025
:103F300070B50A4C02252078012804D0012001F038
:103F40007FFA012802D00020257070BD04490020AE
:103F50000870044908700120207070BD9C02002088
:103F6000F4000020F500002004490A7C012A03D156
:103F7000A32801D10220087470470000E40000204B
:103F800010B50D4C86B0217C002910D1E17C0129AF
:103F90000FD02B2103AA009201910290A3230122AA
:103FA0000649052002F074F9012800D1207406B0FA
:103FB00010BD0220FAE70000E4000020FFFF00002F
:103FC00004490A7A012A03D1A52801D102200872E6
:103FD00070470000E4000020F0B5124C0546207A3E
:103FE00085B0002811D1E07C012703AE01280ED056
:103FF0002D20A52301220096029501900A49052053
:1040000002F046F9012800D1277205B0F0BD0A2060
:104010000AF002FF2E20A523162200960295019099
:10402000ECE70000E4000020FFFF00007CB52D4C11
:10403000E078012852D120790225002808D12A4EA3
:104040003078002801D100F0E7FA3078022803D058
:104050002079012806D00FE000212448FFF7E2FA7A
:1040600001202071224E3078002802D11F4800F034
:104070002DFB3078022803D02079022806D00DE0ED
:1040800001221C491948FFF78DFA25716078002834
:1040900001D100F085FB6078022803D02079032845
:1040A00002D009E003202071A078002801D100F09F
:1040B00045FBA078022812D0207904280ED10220D6
:1040C00001F0D0F90C49FF20097803460122019143
:1040D00000900221104601F0FBFAE5707CBD04203F
:1040E0002071ECE7A0020020BA0200202814002072
:1040F000BF02002068140020BB02002070B50C4CE9
:104100000225E078012804D0022001F099F9012865
:1041100002D00020E57070BD00F078FA00F0D0FA0F
:1041200000206070A0700121E1702071084670BD10
:10413000A0020020FEB5434DA87801287ED1E87882
:10414000002802D1012000F08FF8E87801280AD178
:104150003D4C2078002801D1FFF7EAFE20780228A4
:1041600001D100F081F8E878FF26384C02282FD1E1
:10417000374F3878002802D1012100F0F1FF38785C
:10418000022825D13348007801280ED0287800284D
:1041900014D0401E2870002000F066F8FF23287815
:1041A00000901A461946AA2010E02078002801D075
:1041B000032000E0052000F057F809E0052000F09A
:1041C00053F8FF231A461946AB20009601F0ECF98C
:1041D000E878032814D1204F387800280AD11F4AE4
:1041E00001461154401CC0B24028FAD32178002067
:1041F00000F07CF93878022802D1042000F034F86D
:10420000E878042802D1052000F02EF8E878052887
:1042100016D1207801220190FF230221009610463A
:1042200001F056FA042001F01DF90D48007801282C
:1042300002D10C4808F046FE022000E000E0A87021
:10424000FEBD0000AC0200209C020020DC02002029
:10425000D9020020DA020020B40200202814002035
:10426000F7000020FC00002010B50446FFF75AFEBE
:1042700000F030FF00F012F90148C47010BD0000DA
:10428000AC02002070B50D4C0225A078012804D0A6
:10429000042001F0D5F8012802D0A570002070BDDF
:1042A0000120A0706920C000A080032020706070F1
:1042B0000020FFF7D9FF012070BD0000AC020020F4
:1042C000F0B56C4D85B0A87801287CD128780027FE
:1042D000022600280AD1FF2301211A460846019729
:1042E000009601F0F5F9012000F0DEF828780128A9
:1042F00011D1614C2078002801D101F041F82078DB
:10430000022802D16878FFF767FE5C48007802282F
:1043100001D100F0C9F82878FF24022846D1687935
:1043200000F0DEFE0490687900F0E8FE0390687902
:1043300000F0DCFE029052480078002802D1049878
:1043400000F050FF4E480078022802D1039800F098
:10435000B5FF4C480078022802D1029800F078FF9F
:1043600049480078022801D100F016FB4748007840
:1043700002281BD146480078002801D0032013E012
:10438000E87900280DD06879019000949420029B70
:10439000039A049901F008F9E879401EE8710220B7
:1043A00002E0EF702C71052000F07EF828780328D9
:1043B00032D138480078002808D137486979405C04
:1043C0004000401C00E052E000F0D2F83148007894
:1043D000022801D100F0E0FA2C48007802281BD115
:1043E0002B480078002801D0042013E0E879002849
:1043F0000DD06879019000949520029B039A04994E
:1044000001F0D2F8E879401EE871022002E0EF7076
:104410002C71052000F048F82878042817D1687915
:10442000FF23401CC0B26871012101901A4600961A
:10443000084601F04DF96879A979884201D2022035
:1044400003E00120E8702C71052000F02DF8287899
:1044500005280CD1084C2078002801D100F090FFED
:104460002078022803D1082000F0FCFFAE7005B0D0
:10447000F0BD0000B2020020EE000020EC000020A1
:10448000E4000020E5000020E6000020F00000200D
:10449000F1000020F3000020E81300200149002073
:1044A00088707047B2020020084A00211170084A43
:1044B0001170084A1170084A1170084A1170084AB0
:1044C0001170084A1170084908707047EE0000200A
:1044D000EC000020E4000020E5000020E6000020C1
:1044E000F0000020F3000020B2020020F8B5174CC5
:1044F0000646A07802270D46012804D0082000F0C7
:104500009FFF012801D0A770F8BD0320E0710020B3
:10451000667060710E4AA571FF211154401CC0B233
:104520004028FAD300210B4B08461D5C002D02D118
:104530005054491CC9B2401CC0B24028F5D30120D8
:10454000A0700020FFF7B0FFF8BD0000B20200200D
:10455000E8130020281400200449CA7B012A03D153
:10456000B72801D10220C87370470000E400002082
:10457000F0B5124C0546E07B85B0002811D1E07CF7
:10458000012703AE01280ED02B20B723012200966D
:10459000029501900A49052001F07AFE012800D118
:1045A000E77305B0F0BD0A200AF036FC2E20B723D1
:1045B0001622009602950190ECE70000E40000202E
:1045C000FFFF0000FEB50F4C2078012819D10E4FD7
:1045D00001253878FF26002809D1FF2301211A463A
:1045E00008460196009501F073F800F023F9387839
:1045F000022806D1102000F035FF02202070E5705F
:104600002671FEBDBA020020E90000200149002009
:1046100008707047BA02002070B50E4C0225207851
:10462000012804D0102000F00BFF012802D0002048
:10463000257070BD0021084A617008461154401C65
:10464000C0B24028FAD3054801700F20A0700120A5
:10465000207070BDBA02002028140020E90000205C
:104660001CB5154C2078012811D160783F281DD247
:1046700001F028FD012807D110490878002807D04B
:10468000022804D1002008706078401C60701CBDB6
:10469000FF2103200B460A460191009001210846A4
:1046A00001F016F8607800F02FF91CBD402000F0F2
:1046B000D9FE022020701CBDBF020020F6000020A1
:1046C0000149002008707047BF02002070B50E4CF1
:1046D00002252078012804D0402000F0B1FE0128F6
:1046E00002D00020257070BD00200849FF220A5426
:1046F000401CC0B24028FAD3054900200870607001
:104700000120207070BD0000BF020020681400204E
:10471000F600002070B5084C0D462178134601299B
:1047200008D1C12806D1012219462846FEF74EFFBE
:104730000220207070BD0000A202002010B586B0DB
:1047400003A801F09BFC0A4C207800280ED1C1225E
:104750002E2103A8029201910090FF230722054910
:10476000052001F095FD012800D1207006B010BD94
:10477000A2020020FFFF000070B5084C0D46217812
:104780001346012908D1C02806D10122194628461E
:10479000FEF72CFF0220207070BD0000A102002057
:1047A00010B586B003A801F069FC0A4C20780028F7
:1047B0000ED1C0222E2103A8029201910090FF2366
:1047C00007220549052001F063FD012800D1207072
:1047D00006B010BDA1020020FFFF0000F7B5124F88
:1047E00016467979012916D1912814D100200F4D50
:1047F000387504462146019801F090FA012802D14B
:10480000305DFF2808D000202855641CE4B2402CFD
:10481000F0D302207871FEBD0120285504480178AC
:10482000491C0170F1E70000E4000020281400207A
:10483000BB02002010B50DA003C886B00D4C04913A
:104840000390607900280ED191222E2103A80292B4
:1048500001910090FF2307220749052001F018FD70
:10486000012800D1607106B010BD0000FFFFFFFFFE
:10487000FFFFFFFFE4000020FFFF000070B51F4EA8
:104880001C46B37C86B0012B23D14B069B0E1C4DDE
:10489000992802D0A72809D02CE0012A02D0FF20B5
:1048A000E85427E0EC54FF2C08D023E0012C12D070
:1048B000062C12D0082C17D0FE2C1BD0A7232E229A
:1048C00003A86C460DC40B4601220E49052001F0D9
:1048D000DFFC06B070BD01200AE0E85C0828EDD0DE
:1048E0000128EBD0062003E0E85C0128E6D0082090
:1048F000E854E3E70220B074EBE70000E400002096
:1049000068140020FFFF000010B50D4C86B0A17C9C
:10491000002912D1402810D2992340002E2203A949
:10492000401C029301920091C3B201220549052067
:1049300001F0AEFC012800D1A07406B010BD00004B
:10494000E4000020FFFF000010B5094B9C79012C0A
:104950000BD1962809D1012908D0002901D1022ABA
:1049600004D00020D8710220987110BD0120F9E711
:10497000E400002010B5074B1C7B012C08D1BB289C
:1049800006D1012902D1012058739A7302201873AD
:1049900010BD0000E4000020F0B5134C85B0207B72
:1049A000002815D1E07C2E27002503AE012811D068
:1049B000BB2301220197009602950C49052001F0C6
:1049C00067FC012804D16573FF20A07301202073C8
:1049D00005B0F0BD0A200AF01FFABB23162201978A
:1049E00000960295E9E70000E4000020FFFF0000C8
:1049F0000449CA7A012A03D1A72801D10220C8722A
:104A000070470000E4000020F0B5124C85B0E07A59
:104A1000002812D1E07C0025012703AE01280ED02A
:104A20002D20A72301220096029501900A49052016
:104A300001F02EFC012800D1E77205B0F0BD0A207C
:104A40000AF0EAF92E20A72316220096029501907B
:104A5000ECE70000E4000020FFFF00007CB52F4DD4
:104A60006878012858D1A878002802D1012000F0E8
:104A700061F8A878012802D1022000F05BF8A8783C
:104A8000274C022816D1274E3078002803D1012167
:104A9000FF2000F065FB307802280BD12248007817
:104AA000012802D12078002801D0032000E0052051
:104AB00000F040F8A87803280BD11C4E307800286D
:104AC00001D1FFF7A9FD3078022802D1042000F0BF
:104AD00031F8A87804280DD1154E3078002803D17C
:104AE0002178FF20FFF702FD3078022802D105204F
:104AF00000F020F8A87805280ED1802000F0B2FC44
:104B00002178FF20034601220191009002211046E6
:104B100000F0DEFD022068707CBD0000C2020020B3
:104B2000DC020020D9020020DA020020BA020020B4
:104B3000B402002010B5044600F0CCFAFFF766FD81
:104B4000FFF7ACFC0148847010BD0000C2020020D9
:104B500070B50C4C02256078012804D0802000F04C
:104B60006FFC012802D00020657070BD01206070CC
:104B7000052020706920C000A0800020FFF7DAFF28
:104B8000012070BDC2020020FEB5FE4E707C0128DF
:104B90007ED17078002400280BD1B470FF2301214E
:104BA00000941A460846019400F092FD012000F09E
:104BB000ADFA707801281BD1F34D2878002801D177
:104BC00000F0DEFB2878022802D13079FFF704FAE2
:104BD000EE48007802280BD1F078012805D1FFF7C4
:104BE00013FFEB480078022802D1022000F08EFA71
:104BF0007078E84FE84D02282CD1E848007800286A
:104C000002D1FF2000F0EEFAE4480078022802D139
:104C1000FF2000F053FB3878022802D1FF2000F07B
:104C200017FB2878022801D1FFF730F9DC4800781B
:104C300002280FD1DB48007801280FD00E2000F0A9
:104C400065FAFF2000900246019093230221012083
:104C500000F0AAFC7078032804D01DE0032000F0C7
:104C600055FAF7E73472FF20F0710820B071802008
:104C700070712878002801D100F0EAFA287802281B
:104C800002D1002000F01AFB3878022804D100E09D
:104C900012E2042000F03AFABA48012640780428CB
:104CA00031D1BE480078002803D1B648407900F0E1
:104CB00099FABA480078022801D1FFF7E7F8B84816
:104CC000007802281FD1B748AE49007801284879FA
:104CD0000FD008728B7932469B1E9A40101848718B
:104CE000A8498879401E0006000E887108D004206B
:104CF00007E0C8718B7932469B1E9A40801AEEE716
:104D0000052000F003FA9F484078052828D1A348E1
:104D10000078002803D19B48007A00F063FA9F488E
:104D20000078022802D1FF2000F092FA28780228A9
:104D300002D1FF2000F0C2FA3878022801D1FFF733
:104D4000A5F89748007802280AD1964800780128EB
:104D50008C48017A00D0491C4173062000F0D6F936
:104D60008848407806281BD18648FF21847241720A
:104D7000082181718021417188490978002902D177
:104D8000407B00F02FFA85480078022802D10020ED
:104D900000F05EFA2878022802D1072000F0B6F968
:104DA0007848407807282FD13878002803D17548F3
:104DB000407900F083FA3878022801D1FFF766F8CD
:104DC0007748007802281FD176486E49007801287C
:104DD00048790FD088728B7932469B1E9A40101802
:104DE000487168498879401E0006000E887108D015
:104DF000072007E048728B7932469B1E9A40801A42
:104E0000EEE7082000F082F95E484078082820D1BB
:104E10003878002803D15B48807A00F04FFA387860
:104E2000022802D1FF2000F013FA2878022801D1CD
:104E3000FFF72CF85A48007802280AD15948007820
:104E400001285048817A00D0491C8173092000F064
:104E50005DF94C48407809281DD14A48FF21047368
:104E6000C17208218171802141714C48007800286D
:104E700003D14448407B00F0B5F948480078022847
:104E800003D14048807B00F019FA3878022802D11B
:104E90000A2000F03BF93B4840780A282FD12878B7
:104EA000002803D13748407900F0D2F92878022849
:104EB00001D1FEF7EBFF3A48007802281FD13948AC
:104EC00030490078012848790FD008738B79324631
:104ED0009B1E9A40101848712A498879401E000686
:104EE000000E887108D00A2007E0C8728B7932461C
:104EF0009B1E9A40801AEEE70B2000F007F921482C
:104F000040780B281CD12878002803D11D48007B4D
:104F100000F09EF92878022801D1FEF7B7FF20485B
:104F2000007802280CD11F48007801281548017B21
:104F300000D0491CC173134886700C2000F0E6F8BD
:104F4000104840780C2837D114480078002803D145
:104F50000C48407B00F046F910480078022803D145
:104F60000848807B00F0AAF93878022803D1054868
:104F7000C07B00F06DF92878022801D1FFF70CFD05
:104F8000094813E0C8020020EE000020EC000020D9
:104F9000EF000020E5000020E6000020E4000020F3
:104FA000E7000020E8000020F00000200078022840
:104FB00002D10D2000F0AAF8404D68780D280BD1E1
:104FC0003F4F3878002801D100F010FA38780228D5
:104FD00002D10E2000F09AF868780E281CD1A8782B
:104FE000012803D0AE74FF20E8744CE0297D4029ED
:104FF0004BD234480078012816D02878002840D0B9
:10500000401E2870E87B0090AB7B6A7B442000F058
:10501000CBFA022000F07AF868780F284CD12A4C9D
:10502000207800283ED03FE028486A7B4254AF7B7E
:10503000401840231F54EE7B80231E540292244AC2
:105040001278FF2A00D05208C0300270491CC8B242
:1050500028751E212974AC7003212970FF230121BA
:1050600001901A460094084600F032FB18483B466F
:10507000007801900096297D6620029A00F094FA4B
:10508000C7E7AC74EC740F20C4E7FF200346024668
:1050900001460090552000F087FAAC74EE74412070
:1050A0002875F0E700F06CF92078022804D1C001DF
:1050B00000F0D8F902206874FEBD0000C80200208C
:1050C000ED000020F1000020EE000020A8140020D8
:1050D000F20000200149002048747047C8020020F7
:1050E0000149085C70470000A81400200249081814
:1050F0008030007870470000A8140020024908188A
:105100004030007870470000A81400200A4A0021AF
:1051100011700A4A11700A4A11700A4A11700A4A3B
:1051200011700A4A11700A4A11700A4A11700A4A2B
:1051300011700A4948707047EC000020EF00002011
:10514000EE000020E4000020E5000020E600002042
:10515000E7000020ED000020F0000020C802002041
:10516000F8B5184C0646607C02270D46012804D08D
:10517000F80100F065F9012802D000206774F8BD3D
:105180000020A07403212170FF22E27426714B21BC
:10519000E570C900E1821E2121740B4B20751A5461
:1051A000191840256A5480256A54C031401CC0B289
:1051B0000A704028F3D30020FFF7A8FF0120607495
:1051C000F8BD0000C8020020A814002004490A7895
:1051D000012A03D1B12801D10220087070470000D4
:1051E000E4000020F0B5124C0546207885B0002878
:1051F00011D1E07C012703AE01280ED02B20B12372
:1052000001220096029501900A49052001F040F81C
:10521000012800D1277005B0F0BD0A2009F0FCFD7F
:105220002E20B1231622009602950190ECE7000093
:10523000E4000020FFFF000004498A78012A03D11E
:10524000B52801D10220887070470000E4000020DA
:10525000F0B5124C0546A07885B0002811D1E07C4D
:10526000012703AE01280ED02B20B5230122009682
:10527000029501900A49052001F00AF8012800D1A1
:10528000A77005B0F0BD0A2009F0C6FD2E20B52399
:105290001622009602950190ECE70000E400002041
:1052A000FFFF000004494A78012A03D1B32801D145
:1052B0000220487070470000E4000020F0B5124C56
:1052C0000546607885B0002811D1E07C012703AE47
:1052D00001280ED02B20B3230122009602950190C5
:1052E0000A49052000F0D4FF012800D1677005B0FD
:1052F000F0BD0A2009F090FD2E20B323162200965F
:1053000002950190ECE70000E4000020FFFF0000A0
:1053100004494A7C012A03D1802801D10220487423
:1053200070470000E400002030B50D4C85B0617C72
:10533000002910D1E17C01290FD0034680252D22C0
:1053400003A9684626C001220649052000F0A0FFF7
:10535000012800D1607405B030BD0220FAE70000DA
:10536000E4000020FFFF000004498A7A012A03D1EB
:10537000A12801D10220887270470000E4000020BB
:10538000F0B5124C85B0A07A002812D1E07C00253F
:10539000012703AE01280ED02B20A1230122009665
:1053A000029501900A49052000F072FF012800D102
:1053B000A77205B0F0BD0A2009F02EFD2E20A12312
:1053C0001622009602950190ECE70000E400002010
:1053D000FFFF000004494A7A012A03D1AB2801D11A
:1053E0000220487270470000E4000020F0B5124C23
:1053F00085B0607A002812D1E07C0025012703AE39
:1054000001280ED02B20AB2301220096029501909B
:105410000A49052000F03CFF012800D1677205B061
:10542000F0BD0A2009F0F8FC2E20AB2316220096CE
:1054300002950190ECE70000E4000020FFFF00006F
:1054400010B5074A01465388002059180904090C71
:10545000518004D000221146052000F023F810BD31
:105460000001002000B5064A5188814201D3081A84
:1054700050805088002801D100F004F800BD0000E1
:10548000000100200020064A01211154401CC0B236
:105490000828FAD302490020091F0870704700004D
:1054A00004010020F8B504461448144F00783F1D4D
:1054B0001646002804D0385D012800D00020F8BD31
:1054C000012901D101F084FA002001250146A04202
:1054D00001D13D5400E03954401CC0B20828F6D335
:1054E00001E000F0A3F9012E03D100F00BFF012829
:1054F000F7D0024805700120F8BD0000000100202F
:10550000F8B5144610460C9F099E0B9DFEF758FDFA
:105510002046FFF76DFA2046FFF75CFF2046FFF7B5
:1055200023FF2A4631460798FFF70EFA2046FFF779
:105530004DFE2046FFF7B6FE2046FFF77DFE2A46C9
:1055400031462046FEF78CFC3A460A990798FFF749
:1055500045F93A460A990798FFF70EF93A460A992B
:105560000798FFF7D7F82A4631462046FFF702FA98
:105570002046FEF7F1FF2046FEF7F6FC0798FFF7FE
:10558000C7FE204606F0CCFE204606F0BDFE2A46A9
:105590003146079806F0DCFF2B4632462146079835
:1055A000FFF76CF9F8BD0000F0B585B00FA42468D2
:1055B00004940A9E83246F463C710D4C25787D71BE
:1055C0006478BC710524FC7138727972BA72FB720E
:1055D0003E730B9878730748009004AB0A2201A928
:1055E000002002F08DF905B0F0BD0000C0A833FF27
:1055F000FA000020BB08000010B5FFF72FFAFEF7F5
:1056000099FDFFF7C1FAFEF7DDFFFEF759FEFEF741
:1056100067FCFEF70BFDFFF723F806F08DFE10BDCB
:10562000002070471CB5114902780A7042784A7010
:1056300082788A70C078C8704020891E0870002067
:1056400048701639C874FEF759FDFF2101280091F2
:10565000019106D0FF231A461946002000F038F8C1
:105660001CBDFF2300211A460120F7E7FC000020A3
:105670001CB5164A0378137043785370837893707F
:10568000C078D070901E002902D0012904D007E014
:1056900040220270082202E077220270012242704A
:1056A0000A481838C174FEF7EDFDFF21012800916A
:1056B000019106D0FF231A461946002000F008F891
:1056C0001CBDFF2300211A460120F7E7FC00002043
:1056D000F0B585B083246F460A9E3C710C4C25784A
:1056E0007D716478BC710524FC7138727972BA726C
:1056F000FB723E730B9878730648054B00909B1C19
:105700000A2201A9002002F0FBF805B0F0BD00005C
:10571000FA000020BA0800001CB5134902780A708C
:1057200042784A7082788A70C078C8700E484021EA
:10573000801E0170092141700B4900201839C8747E
:10574000FFF706FAFF2101280091019106D0FF23FF
:105750001A4619460020FFF7BBFF1CBDFF2300219E
:105760001A460120F7E70000FC000020F0B5059C78
:10577000082808D8104D2E5C002E04D12E46083E75
:10578000365C012E01D00020F0BD0C4F8600B951CF
:10579000094908310A543A46C032002116464036BB
:1057A0005F5C5754675C7754491CC9B24029F7D3F2
:1057B000012129540846F0BD0C010020A40300205B
:1057C000F8B51D4617460E460446FDF7F5FC16488B
:1057D000012101700021816041702146C02009F043
:1057E00095F93146C12009F091F9002420460B308B
:1057F000395DC0B209F08AF9641CE4B2402CF5D3DB
:10580000002420467F30295DC0B209F07FF9641C76
:10581000E4B2402CF5D33146CD2009F077F90421CC
:10582000002009F073F9F8BD64010020F0B5AFB0B5
:1058300000F068FDB94EBA4F002804D001F096FA86
:1058400000287AD066E101F091FA0028FAD100240C
:10585000B3484838005D012869D1B14854384078D0
:105860000590AF484038005D01461739092907D82F
:10587000AA4B0599A0331A46403AFFF7A1FF16E05C
:10588000A7490FAD2839095D0495069B079A01AD1C
:105890000EC5A349E2003039095D00919F494039A6
:1058A00053189F4938390A5D059901F0E9F99C4878
:1058B0000121203801559949A0006039095831501B
:1058C0009748E2004038015D3030015508380599AD
:1058D00001552038015D303001559048403811188D
:1058E00005466035CB795019C3718B7983714B793B
:1058F00043710B790371CB78C3708B7883704978CF
:10590000417028466038805CA85485483038005D76
:10591000385583482838015D303001555C3841786E
:10592000491C41707E490020483908550824641CF0
:10593000E4B2082C8CD3EDE0FFE700241FAD7848DB
:105940002038005D01286ED10BA80AA900910290B1
:105950000DAB09AA01950CA908A801F047F9012887
:105960002AD16F4808A91838005D097C8842F7D110
:105970002300FCF77FFC080522C63D59748FAAC698
:1059800008AA117A127903920DA804AB23C36448C4
:1059900008AA08301278007839780190604802929D
:1059A0000091083802785D4B083801782033306860
:1059B00000F0E6FC06F092FAA3E008AA117A127948
:1059C00003920DA804AB23C3554808AA08301278E7
:1059D00040787978019052480292009108384278D4
:1059E0004E4B083841782833706806F0C5F988E0D6
:1059F00008AA117A127903920DA804AB23C3484870
:105A000008AA08301278C078F978019044480292C8
:105A100000910838C278414B0838C1783833F068B3
:105A200009F096FB6DE070E008AA117A12790392F2
:105A30000DA804AB23C33A4808AA083012780079AD
:105A40003979019036480292009108380279334B37
:105A5000083801794033306909F0BAFA51E008AAF0
:105A6000117A127903920DA804AB23C32C4808AA1B
:105A70000830127840797979019029480292009192
:105A800008384279254B0838417948337069FFF767
:105A900037FD36E008AA117A127903920DA804ABFB
:105AA00023C31F4808AA083081791278B87900907A
:105AB0001B480292019108388279184B0838817985
:105AC0005033B06901F052FB1BE008A8017B027A59
:105AD0000DA804AB079125C308A8027903781048E4
:105AE000F9790830C079019002930D480392009132
:105AF0000838C279094B0838C1795833F06906F083
:105B00001DFA0749002020390855641CE4B2082C0E
:105B100000D214E700F06EFF2FB0F0BD04040020A7
:105B200054010020F0B50021104E01250022CC00C8
:105B3000A318F75C012F05D10C4F4037FB5C1B0904
:105B4000DB070DD0475C2B4693409F434754521CC4
:105B5000D2B2082AECD3491CC9B20829E6D3F0BD59
:105B6000435C2F4697403B434354F0E72406002014
:105B700001494870704700007801002030B5B1B08D
:105B80000546FF246846FDF741FD20A910A8FDF752
:105B9000F9FC6846405D012815D10C480B49405D71
:105BA0008039002802D14A5D012A03D0495D0029CD
:105BB00004D004E005484038445D04E03F24012857
:105BC00001D18034E4B2204631B030BD240700203A
:105BD00070B50D46044600F075FA012804D103495A
:105BE000085508464030055570BD0000A406002049
:105BF0000149085C70470000A4060020FFB5B1B061
:105C00000E4668463A9DFDF701FD20A910A8FDF754
:105C1000B9FC002401276846005D01286FD12146A8
:105C2000339800F07BF8012869D12146349800F0C0
:105C300075F80128204604D000F0D2F9012858D088
:105C40005DE000F0B5F9012806D10021204601F001
:105C5000ABFF2E480021015531982E2802D0302864
:105C60001ED04CE0A02E02D0902E13D047E0284A40
:105C70005078002843D125488038034607554033E3
:105C8000195D285D81423AD0FF2838D01770285D11
:105C9000185534E01F481F490755285D403111E071
:105CA000FA2E04D0FC2E0FD0FD2E18D027E01A4873
:105CB000075501464031085D2A5D90421FD01448C7
:105CC0008770285D08551AE01248012140380755B1
:105CD0002A5D40380255204601F0EEFF0FE00B48E8
:105CE00080300755295D40300155204602F0EEFC1A
:105CF00005E00121204601F057FF04480755641CC8
:105D0000E4B2402C87D335B0F0BD0000240700205A
:105D1000780100202406002024050020CA08D300B2
:105D2000805CC91AC840C007C00F704730B5B1B019
:105D3000044600256846FDF769FC20A910A8FDF778
:105D400021FC402C11D26846005D01280AD110A820
:105D5000005D012802D0002803D003E020A8055DE3
:105D600000E04025284631B030BD0020FBE7F3B508
:105D7000B1B000246846FDF749FC20A910A8FDF742
:105D800001FC00236E4600200146DD006A18D2B2F5
:105D9000B75C012F0ED110AFBF5C012F0AD120AF2D
:105DA000BF5C329A974205D101228A401018641CC8
:105DB000C0B2E4B2491CC9B20829E7D33199C8542A
:105DC0005B1CDBB2082BDED3204633B0F0BD0000F5
:105DD000F0B55A4D97B0A878002703AE012851D1ED
:105DE000AF70072100F0AEF96A461071062101205C
:105DF00000F0A8F96A4650710521012000F0A2F9CF
:105E00006A4690710421012000F09CF96A46D07125
:105E10000321012000F096F96A4610720221012048
:105E200000F090F96A4650720121084600F08AF9A4
:105E30006A4690720021012000F084F96A46D0720F
:105E400080201073402151739073002001AA115CCF
:105E50003318401CC0B2D9700828F8D300243F2062
:105E6000001BC0B200F074F83119641CE4B2C872AF
:105E7000402CF4D332480090324B4B2203A900202F
:105E800001F03EFD2878012855D12F702E4808F0EA
:105E9000C3FA0721032000F055F96946087106216D
:105EA000032000F04FF9694648710521032000F0F6
:105EB00049F9694688710421032000F043F96946D5
:105EC000C8710321084600F03DF9694608720221B5
:105ED000032000F037F9694648720121032000F0E1
:105EE00031F9694688720021032000F02BF96946D8
:105EF000C872802008734020487360208873002097
:105F000001A90A5C3318401CC0B2DA700828F8D323
:105F100000200E4A3F210B1A3418401CD35CC0B23B
:105F2000E3724028F7D306480090064B4B2203A9A2
:105F3000002001F0E5FC17B0F0BD00007801002062
:105F4000BA080000C0010020FFFF0000E4060020A6
:105F500030B5B1B0044600256846FDF757FB10A9DF
:105F600020A8FDF70FFB6846005D012818D110A896
:105F7000005D012814D10C480C49005D002802D1B5
:105F80000A5D012A03D0095D002904D004E0074816
:105F90004030055D04E04025012801D18035EDB297
:105FA000284631B030BD0000240700202405002021
:105FB00010B590B004466846FDF728FB6846005DC2
:105FC000012805D10549085D002804D0401E085568
:105FD000002010B010BD0120FBE700006407002086
:105FE00010B590B004466846FDF710FB6846005DAA
:105FF000012805D10549085D032804D2401C085535
:10600000002010B010BD0120FBE700006407002055
:106010000149085C704700002407002030B5B1B08A
:10602000044600256846FDF7F1FA10A920A8FDF7FF
:10603000A9FA6846005D012818D110A8005D012862
:1060400014D10C480C49005D002802D10A5D012AD8
:1060500003D0095D002904D004E007484038055DFD
:1060600004E04025012801D18035EDB2284631B049
:1060700030BD000024070020E4050020F1B590B0F9
:1060800000246846FDF7C2FA00226D46012700236E
:106090001946D6007018C0B2285C012805D13846D0
:1060A0008840C018641CC3B2E4B2491CC9B20829B4
:1060B000F0D310988354521CD2B2082AE7D320465A
:1060C00011B0F0BD10B590B00446402806D2684625
:1060D000FDF79CFA6846005D10B010BD0020FBE79C
:1060E00003494878002801D0401E487070470000DE
:1060F0007801002030B591B0054600246846FDF7D0
:1061000085FA6846405D012814D10C480C49405D71
:10611000002802D14A5D012A03D0495D002904D03C
:1061200004E007484030445D04E04024012801D1E8
:106130008034E4B2204611B030BD000024070020B6
:1061400024060020F0B5B1B005460E46002410A884
:10615000FDF75CFA694620A8FDF714FAF000012665
:1061600010AB002D16D100214218D2B29F5C012F36
:106170000CD1444FBF5C002F08D1424F803FBA5C26
:10618000002A03D032468A401219D4B2491CC9B23F
:106190000829E9D3012D19D100214718FAB29F5CD3
:1061A000012F0FD16F46BF5C012F0BD1354FBF5C64
:1061B000002F07D1344FBF5C002F03D032468A40F6
:1061C0001219D4B2491CC9B20829E6D3022D1AD13A
:1061D00000214718FAB29F5C012F10D16F46BF5CB7
:1061E000012F0CD1274FBF5C002F08D1264FC0379D
:1061F000BF5C012F03D132468A401219D4B2491C28
:10620000C9B20829E5D3032D11D100214718FAB2EC
:106210009F5C012F07D120AFBF5C012F03D1324615
:106220008A401219D4B2491CC9B20829EED3042DF0
:106230000DD100214218D2B29A5C012A03D1324614
:106240008A401219D4B2491CC9B20829F2D3052DCB
:1062500015D10C4D00214218D2B29F5C012F0AD1FA
:10626000AF5C002F07D1094FBA5C012A03D1324637
:106270008A401219D4B2491CC9B20829EBD320466E
:1062800031B0F0BD240700202405002024060020A2
:10629000F0B5059C082808D8184D2E5C002E04D1B6
:1062A0002E46083E365C012E01D00020F0BD144F72
:1062B0008600B95111493E4608310A5408310B5441
:1062C000C2002036E3799119CB71A3798B71637980
:1062D0004B7123790B71E378CB70A3788B70637863
:1062E0004B702178B154054A06991832115408327E
:1062F00007991154012129540846F0BD0C010020D2
:10630000A4030020064900200A5C012A05D0401C95
:10631000C0B20828F8D30020704701207047000061
:106320003401002070B5064612480C46017800255D
:1063300086B000291AD1012101700F49C8200870C8
:1063400000F046FB2B2103A86A4613C274002046C6
:106350008030C3B2012209490020FFF799FF0546AA
:1063600020468130FF220021FCF76AFB284606B058
:1063700070BD0000FB01002069020020FFFF00004B
:10638000F0B585B00D46174650080A9900236D4AAE
:106390000F9E0B9C2B2902D02E2902D00AE01370ED
:1063A00008E0EE2C01D0FC2C00D11370EF2CF6D0BD
:1063B000FD2CF4D0162D7ED110287CD22E297AD136
:1063C0000D99614D012908D0EE2C4ED0FC2C5AD0ED
:1063D000EF2C5BD0FD2C67D06DE00321EE2C1CD0A0
:1063E000FC2C1AD0EF2C1DD0FA2C20D0FB2C1ED068
:1063F000780840002E21401CF02C1CD0F12C1CD021
:10640000F22C26D0F32C26D0F42C26D0F52C26D036
:10641000F62C26D0F72C26D04DE06970314600F0DE
:1064200017FA48E06970314600F0FCF843E0314665
:1064300000F0E6F83FE0F12200E0F22203AB009327
:1064400002920191C3B2162201210020FFF720FF22
:1064500031E0F322F2E7F422F0E7F522EEE7F6224C
:10646000ECE7F722EAE7F822E8E7012E02D0022E55
:1064700006D01BE0697800291DD000F097F915E0DF
:106480006978002917D000F04DF90FE0012E02D0F5
:10649000022E06D00AE0697800290CD000F064F9D9
:1064A00004E06978002906D000F01AF9687800281D
:1064B00001D0401E6870324620460D99FBF778F9EE
:1064C000324620460D99FBF7F3F8324620460D99E7
:1064D000FBF702F9324620460D99FBF711F93246D7
:1064E00020460D99FBF722F9324620460D99FBF71D
:1064F00033F9324620460D99FBF744F92046FDF763
:1065000019F82046FCF79AFF2046FCF789FF204641
:10651000FCF7F6FF324620460D99FCF79BFF32460A
:1065200020460D99FCF7A4FF3846FCF76DFF204686
:10653000FCF7F4FF324620460D99FCF7D3FF05B077
:10654000F0BD0000FB0100206902002030B50446C8
:1065500011480025017885B0002919D10121017069
:106560000E49C820087000F033FA02222B2103A83C
:106570006D4607C564008134E3B20122084900205A
:10658000FFF786FE0546FF2203212046FCF758FA56
:10659000284605B030BD0000FB0100206902002044
:1065A000FFFF0000F0B5074612480C4601780025B1
:1065B00085B000291BD1012101700F49C820087046
:1065C00000F006FA26461036F2B22B2103A86D46DB
:1065D00007C57C008134E3B2012208490020FFF79F
:1065E00057FE0546FF2231462046FCF729FA284689
:1065F00005B0F0BDFB01002069020020FFFF000094
:1066000000B585B0F02340002E2203A9401C029360
:1066100001920091C3B2162201210020FFF738FE3B
:1066200005B000BD10B50A46202102F0C7FB10BD21
:1066300030B5044611480025017885B0002919D1EC
:10664000012101700E49C820087000F0C1F9002234
:106650002B2103A86D4607C564008134E3B20122F3
:1066600008490020FFF714FE0546FF2201212046BD
:10667000FCF7E6F9284605B030BD0000FB0100201C
:1066800069020020FFFF000010B50E4904460A7899
:10669000002086B0002A13D1012008700A49C820C2
:1066A000087000F095F908222B2103A86B4607C358
:1066B00060008130C3B2012204490020FFF7E8FDE9
:1066C00006B010BDFB01002069020020FFFF0000A2
:1066D00010B505F081FD10BD10B505F00BFE10BD25
:1066E00010B50E4904460A78002086B0002A13D15E
:1066F000012008700A49C820087000F069F9FD22DD
:106700002E2103A86B4607C36000401CC3B21622AB
:1067100001210020FFF7BCFD06B010BDFB010020E9
:106720006902002010B50E4904460A78002086B0A0
:10673000002A13D1012008700A49C820087000F00F
:1067400047F9FC222E2103A86B4607C36000401CBA
:10675000C3B2162201210020FFF79AFD06B010BD3A
:10676000FB0100206902002010B50E4904460A789A
:10677000002086B0002A13D1012008700A49C820E1
:10678000087000F025F9EF222E2103A86B4607C3FD
:106790006000401CC3B2162201210020FFF778FDE3
:1067A00006B010BDFB0100206902002010B50E49A3
:1067B00004460A78002086B0002A13D10120087010
:1067C0000A49C820087000F003F9EE222E2103A820
:1067D0006B4607C36000401CC3B216220121002093
:1067E000FFF756FD06B010BDFB0100206902002036
:1067F00010B5FFF7DBFF10BD30B50446114800258A
:10680000017885B0002919D1012101700E49C820F5
:10681000087000F0DDF805222B2103A86D4607C59E
:1068200064008134E3B2012208490020FFF730FD03
:106830000546FF2206212046FCF702F9284605B04E
:1068400030BD0000FB01002069020020FFFF0000B6
:1068500010B50446880609D5DF200140FF222046F6
:1068600002F0ACFA2046FFF77FFF10BDFF22204662
:1068700002F0A4FA10BD000010B5084A10780128F3
:1068800005D107490878002802D0401E087010BDC5
:106890000020107004F030FC10BD0000FB0100204F
:1068A0006902002010B5174904460A780020A2B0FA
:1068B000002A25D1012008701349C820087000F073
:1068C00087F8002101A811ABFF2242545A54491CF9
:1068D000C9B24029F9D3C12069464871082010A9DE
:1068E00048716000694681300871E82010A908717C
:1068F000009301AB172205490020FEF737FF012066
:1069000022B010BDFB01002069020020FFFF000043
:1069100010B5174904460A780020A2B0002A25D1F4
:10692000012008701349C820087000F051F80021B8
:1069300001A811ABFF2242545A54491CC9B2402944
:10694000F9D3C12069464871082010A94871600038
:10695000694681300871E92010A90871009301ABE4
:10696000172205490020FEF701FF012022B010BDCB
:10697000FB01002069020020FFFF000070B5064601
:1069800010480025017886B0002918D10124047030
:106990000D49C820087000F01BF82B2103A86A4697
:1069A00013C274008134E3B2012208490020FFF7CA
:1069B0006FFC0546FF2202212046FCF741F82846DD
:1069C00006B070BDFB01002069020020FFFF00003F
:1069D00010B507480078002809D1054A01460C3255
:1069E0001154401CC0B20828FAD300F0C5F910BDFC
:1069F00000010020F0B5092097B0FF2603250821EB
:106A0000C006FAF747FD01287ED1002008F02AF8D9
:106A10000446000702D5FCF7C9FB05E0FCF7B8FB0C
:106A200002216548FAF73DFDE0076DD06D1EE8B222
:106A30000090402008F016F80546412008F012F8B2
:106A40001690802D1ED10020044607271590204661
:106A50004330C0B208F006F83A1B641C13A9E4B234
:106A60008854082CF3D300273C4620464C30C0B253
:106A700007F0F8FF3F210A1B641C03A9E4B2885405
:106A8000402CF2D3842D26D100200446072713AED4
:106A9000159020464330C0B207F0E4FF0146381B92
:106AA000641CE4B23154082CF3D300273C4603AEF7
:106AB00020464C30C0B207F0D5FF01463F20021BF4
:106AC000641CE4B2B154402CF2D38E2007F0CAFF0C
:106AD0000646FF2802D0822D02D01AE0802538E039
